{
  "fileName": "Contract.sol",
  "contractName": "Contract",
  "source": "// SPDX-License-Identifier: UNLICENSED\npragma solidity ^0.6.9;\n\npragma experimental ABIEncoderV2;\n\nimport \"@openzeppelin/contracts-upgradeable/token/ERC721/ERC721Upgradeable.sol\";\nimport \"@openzeppelin/contracts/utils/Counters.sol\";\nimport \"./DarkForestTypes.sol\";\nimport './DarkForestCore.sol';\n\n\nenum AchievementType {ConquerorI, ConquerorII, ConquerorIII}\nstruct Achievement {\n    uint256 id;\n    uint256 mintedAtTimestamp;\n    AchievementType achievementType;\n}\n\n\ncontract Contract is ERC721Upgradeable {\n    using Counters for Counters.Counter;\n    Counters.Counter private _tokenIds;\n    address coreAddress = address(0);\n    DarkForestCore core;\n    mapping(uint256 => Achievement) achievements;\n    function initialize(address payable _coreAddress) public initializer {\n        coreAddress = _coreAddress;\n        core = DarkForestCore(_coreAddress);\n    }\n    function claimAchievement(\n        AchievementType achievementType,\n        uint256 planetId\n    ) public returns (Achievement memory) {\n        //TODO: prevent players from requesting the same achievement multiple times\n        uint256[] memory ids = new uint256[](1);\n        ids[0] = planetId;\n        DarkForestTypes.Planet[] memory planets = core.bulkGetPlanetsByIds(ids);\n        DarkForestTypes.Planet memory planet = planets[0];\n        require(\n            planet.owner == msg.sender,\n            \"Not your planet\"\n        );\n        if(achievementType == AchievementType.ConquerorI){\n            require(\n                planet.planetLevel == 1,\n                \"Planet level does not match\"\n            );\n        }\n        if(achievementType == AchievementType.ConquerorII){\n            require(\n                planet.planetLevel == 2,\n                \"Planet level does not match\"\n            );\n        }\n        if(achievementType == AchievementType.ConquerorIII){\n            require(\n                planet.planetLevel == 3,\n                \"Planet level does not match\"\n            );\n        }\n        _tokenIds.increment();\n        uint256 tokenId = _tokenIds.current();\n        _mint(msg.sender, tokenId);\n\n        Achievement memory newAchievement = Achievement(\n            tokenId,\n            block.timestamp,\n            achievementType\n        );\n\n        achievements[tokenId] = newAchievement;\n\n        return newAchievement;\n    }\n\n    function getAchievement(uint256 tokenId)\n        public\n        view\n        returns (Achievement memory)\n    {\n        return achievements[tokenId];\n    }\n\n    function getPlayerAchievements(address playerId)\n        public\n        view\n        returns (Achievement[] memory)\n    {\n        uint256 balance = balanceOf(playerId);\n\n        Achievement[] memory results = new Achievement[](balance);\n\n        for (uint256 idx = 0; idx < balance; idx++) {\n            uint256 tokenId = tokenOfOwnerByIndex(playerId, idx);\n            results[idx] = achievements[tokenId];\n        }\n\n        return results;\n    }\n}",
  "sourcePath": "contracts/Contract.sol",
  "abi": [
    {
      "anonymous": false,
      "inputs": [
        {
          "indexed": true,
          "internalType": "address",
          "name": "owner",
          "type": "address"
        },
        {
          "indexed": true,
          "internalType": "address",
          "name": "approved",
          "type": "address"
        },
        {
          "indexed": true,
          "internalType": "uint256",
          "name": "tokenId",
          "type": "uint256"
        }
      ],
      "name": "Approval",
      "type": "event"
    },
    {
      "anonymous": false,
      "inputs": [
        {
          "indexed": true,
          "internalType": "address",
          "name": "owner",
          "type": "address"
        },
        {
          "indexed": true,
          "internalType": "address",
          "name": "operator",
          "type": "address"
        },
        {
          "indexed": false,
          "internalType": "bool",
          "name": "approved",
          "type": "bool"
        }
      ],
      "name": "ApprovalForAll",
      "type": "event"
    },
    {
      "anonymous": false,
      "inputs": [
        {
          "indexed": true,
          "internalType": "address",
          "name": "from",
          "type": "address"
        },
        {
          "indexed": true,
          "internalType": "address",
          "name": "to",
          "type": "address"
        },
        {
          "indexed": true,
          "internalType": "uint256",
          "name": "tokenId",
          "type": "uint256"
        }
      ],
      "name": "Transfer",
      "type": "event"
    },
    {
      "inputs": [
        {
          "internalType": "address",
          "name": "to",
          "type": "address"
        },
        {
          "internalType": "uint256",
          "name": "tokenId",
          "type": "uint256"
        }
      ],
      "name": "approve",
      "outputs": [],
      "stateMutability": "nonpayable",
      "type": "function"
    },
    {
      "inputs": [
        {
          "internalType": "address",
          "name": "owner",
          "type": "address"
        }
      ],
      "name": "balanceOf",
      "outputs": [
        {
          "internalType": "uint256",
          "name": "",
          "type": "uint256"
        }
      ],
      "stateMutability": "view",
      "type": "function"
    },
    {
      "inputs": [],
      "name": "baseURI",
      "outputs": [
        {
          "internalType": "string",
          "name": "",
          "type": "string"
        }
      ],
      "stateMutability": "view",
      "type": "function"
    },
    {
      "inputs": [
        {
          "internalType": "enum AchievementType",
          "name": "achievementType",
          "type": "uint8"
        },
        {
          "internalType": "uint256",
          "name": "planetId",
          "type": "uint256"
        }
      ],
      "name": "claimAchievement",
      "outputs": [
        {
          "components": [
            {
              "internalType": "uint256",
              "name": "id",
              "type": "uint256"
            },
            {
              "internalType": "uint256",
              "name": "mintedAtTimestamp",
              "type": "uint256"
            },
            {
              "internalType": "enum AchievementType",
              "name": "achievementType",
              "type": "uint8"
            }
          ],
          "internalType": "struct Achievement",
          "name": "",
          "type": "tuple"
        }
      ],
      "stateMutability": "nonpayable",
      "type": "function"
    },
    {
      "inputs": [
        {
          "internalType": "uint256",
          "name": "tokenId",
          "type": "uint256"
        }
      ],
      "name": "getAchievement",
      "outputs": [
        {
          "components": [
            {
              "internalType": "uint256",
              "name": "id",
              "type": "uint256"
            },
            {
              "internalType": "uint256",
              "name": "mintedAtTimestamp",
              "type": "uint256"
            },
            {
              "internalType": "enum AchievementType",
              "name": "achievementType",
              "type": "uint8"
            }
          ],
          "internalType": "struct Achievement",
          "name": "",
          "type": "tuple"
        }
      ],
      "stateMutability": "view",
      "type": "function"
    },
    {
      "inputs": [
        {
          "internalType": "uint256",
          "name": "tokenId",
          "type": "uint256"
        }
      ],
      "name": "getApproved",
      "outputs": [
        {
          "internalType": "address",
          "name": "",
          "type": "address"
        }
      ],
      "stateMutability": "view",
      "type": "function"
    },
    {
      "inputs": [
        {
          "internalType": "address",
          "name": "playerId",
          "type": "address"
        }
      ],
      "name": "getPlayerAchievements",
      "outputs": [
        {
          "components": [
            {
              "internalType": "uint256",
              "name": "id",
              "type": "uint256"
            },
            {
              "internalType": "uint256",
              "name": "mintedAtTimestamp",
              "type": "uint256"
            },
            {
              "internalType": "enum AchievementType",
              "name": "achievementType",
              "type": "uint8"
            }
          ],
          "internalType": "struct Achievement[]",
          "name": "",
          "type": "tuple[]"
        }
      ],
      "stateMutability": "view",
      "type": "function"
    },
    {
      "inputs": [
        {
          "internalType": "address payable",
          "name": "_coreAddress",
          "type": "address"
        }
      ],
      "name": "initialize",
      "outputs": [],
      "stateMutability": "nonpayable",
      "type": "function"
    },
    {
      "inputs": [
        {
          "internalType": "address",
          "name": "owner",
          "type": "address"
        },
        {
          "internalType": "address",
          "name": "operator",
          "type": "address"
        }
      ],
      "name": "isApprovedForAll",
      "outputs": [
        {
          "internalType": "bool",
          "name": "",
          "type": "bool"
        }
      ],
      "stateMutability": "view",
      "type": "function"
    },
    {
      "inputs": [],
      "name": "name",
      "outputs": [
        {
          "internalType": "string",
          "name": "",
          "type": "string"
        }
      ],
      "stateMutability": "view",
      "type": "function"
    },
    {
      "inputs": [
        {
          "internalType": "uint256",
          "name": "tokenId",
          "type": "uint256"
        }
      ],
      "name": "ownerOf",
      "outputs": [
        {
          "internalType": "address",
          "name": "",
          "type": "address"
        }
      ],
      "stateMutability": "view",
      "type": "function"
    },
    {
      "inputs": [
        {
          "internalType": "address",
          "name": "from",
          "type": "address"
        },
        {
          "internalType": "address",
          "name": "to",
          "type": "address"
        },
        {
          "internalType": "uint256",
          "name": "tokenId",
          "type": "uint256"
        }
      ],
      "name": "safeTransferFrom",
      "outputs": [],
      "stateMutability": "nonpayable",
      "type": "function"
    },
    {
      "inputs": [
        {
          "internalType": "address",
          "name": "from",
          "type": "address"
        },
        {
          "internalType": "address",
          "name": "to",
          "type": "address"
        },
        {
          "internalType": "uint256",
          "name": "tokenId",
          "type": "uint256"
        },
        {
          "internalType": "bytes",
          "name": "_data",
          "type": "bytes"
        }
      ],
      "name": "safeTransferFrom",
      "outputs": [],
      "stateMutability": "nonpayable",
      "type": "function"
    },
    {
      "inputs": [
        {
          "internalType": "address",
          "name": "operator",
          "type": "address"
        },
        {
          "internalType": "bool",
          "name": "approved",
          "type": "bool"
        }
      ],
      "name": "setApprovalForAll",
      "outputs": [],
      "stateMutability": "nonpayable",
      "type": "function"
    },
    {
      "inputs": [
        {
          "internalType": "bytes4",
          "name": "interfaceId",
          "type": "bytes4"
        }
      ],
      "name": "supportsInterface",
      "outputs": [
        {
          "internalType": "bool",
          "name": "",
          "type": "bool"
        }
      ],
      "stateMutability": "view",
      "type": "function"
    },
    {
      "inputs": [],
      "name": "symbol",
      "outputs": [
        {
          "internalType": "string",
          "name": "",
          "type": "string"
        }
      ],
      "stateMutability": "view",
      "type": "function"
    },
    {
      "inputs": [
        {
          "internalType": "uint256",
          "name": "index",
          "type": "uint256"
        }
      ],
      "name": "tokenByIndex",
      "outputs": [
        {
          "internalType": "uint256",
          "name": "",
          "type": "uint256"
        }
      ],
      "stateMutability": "view",
      "type": "function"
    },
    {
      "inputs": [
        {
          "internalType": "address",
          "name": "owner",
          "type": "address"
        },
        {
          "internalType": "uint256",
          "name": "index",
          "type": "uint256"
        }
      ],
      "name": "tokenOfOwnerByIndex",
      "outputs": [
        {
          "internalType": "uint256",
          "name": "",
          "type": "uint256"
        }
      ],
      "stateMutability": "view",
      "type": "function"
    },
    {
      "inputs": [
        {
          "internalType": "uint256",
          "name": "tokenId",
          "type": "uint256"
        }
      ],
      "name": "tokenURI",
      "outputs": [
        {
          "internalType": "string",
          "name": "",
          "type": "string"
        }
      ],
      "stateMutability": "view",
      "type": "function"
    },
    {
      "inputs": [],
      "name": "totalSupply",
      "outputs": [
        {
          "internalType": "uint256",
          "name": "",
          "type": "uint256"
        }
      ],
      "stateMutability": "view",
      "type": "function"
    },
    {
      "inputs": [
        {
          "internalType": "address",
          "name": "from",
          "type": "address"
        },
        {
          "internalType": "address",
          "name": "to",
          "type": "address"
        },
        {
          "internalType": "uint256",
          "name": "tokenId",
          "type": "uint256"
        }
      ],
      "name": "transferFrom",
      "outputs": [],
      "stateMutability": "nonpayable",
      "type": "function"
    }
  ],
  "bytecode": "0x6080604052609880546001600160a01b031916905534801561002057600080fd5b506122c5806100306000396000f3fe608060405234801561001057600080fd5b50600436106101375760003560e01c80636c0360eb116100b8578063b88d4fde1161007c578063b88d4fde14610279578063c4d66de81461028c578063c87b56dd1461029f578063e985e9c5146102b2578063f2ccc543146102c5578063f7491f2d146102e557610137565b80636c0360eb1461022357806370a082311461022b57806395d89b411461023e5780639ce67bdd14610246578063a22cb4651461026657610137565b806323b872dd116100ff57806323b872dd146101c45780632f745c59146101d757806342842e0e146101ea5780634f6ccce7146101fd5780636352211e1461021057610137565b806301ffc9a71461013c57806306fdde0314610165578063081812fc1461017a578063095ea7b31461019a57806318160ddd146101af575b600080fd5b61014f61014a366004611a3b565b6102f8565b60405161015c9190611c73565b60405180910390f35b61016d61031b565b60405161015c9190611c7e565b61018d610188366004611a93565b6103b1565b60405161015c9190611b9c565b6101ad6101a836600461195f565b6103fd565b005b6101b7610495565b60405161015c91906121aa565b6101ad6101d2366004611836565b6104a6565b6101b76101e536600461195f565b6104de565b6101ad6101f8366004611836565b610509565b6101b761020b366004611a93565b610524565b61018d61021e366004611a93565b61053a565b61016d610562565b6101b76102393660046117e2565b6105c3565b61016d61060c565b6102596102543660046117e2565b61066d565b60405161015c9190611bed565b6101ad61027436600461192e565b61076a565b6101ad610287366004611876565b610838565b6101ad61029a3660046117e2565b610877565b61016d6102ad366004611a93565b610926565b61014f6102c03660046117fe565b610a70565b6102d86102d3366004611a93565b610a9e565b60405161015c919061219c565b6102d86102f3366004611a73565b610aff565b6001600160e01b0319811660009081526033602052604090205460ff165b919050565b606a8054604080516020601f60026000196101006001881615020190951694909404938401819004810282018101909252828152606093909290918301828280156103a75780601f1061037c576101008083540402835291602001916103a7565b820191906000526020600020905b81548152906001019060200180831161038a57829003601f168201915b5050505050905090565b60006103bc82610d79565b6103e15760405162461bcd60e51b81526004016103d890611fef565b60405180910390fd5b506000908152606860205260409020546001600160a01b031690565b60006104088261053a565b9050806001600160a01b0316836001600160a01b0316141561043c5760405162461bcd60e51b81526004016103d8906120d3565b806001600160a01b031661044e610d86565b6001600160a01b0316148061046a575061046a816102c0610d86565b6104865760405162461bcd60e51b81526004016103d890611e83565b6104908383610d8a565b505050565b60006104a16066610df8565b905090565b6104b76104b1610d86565b82610e03565b6104d35760405162461bcd60e51b81526004016103d890612114565b610490838383610e88565b6001600160a01b03821660009081526065602052604081206105009083610f96565b90505b92915050565b61049083838360405180602001604052806000815250610838565b600080610532606684610fa2565b509392505050565b6000610503826040518060600160405280602981526020016122676029913960669190610fbe565b606d8054604080516020601f60026000196101006001881615020190951694909404938401819004810282018101909252828152606093909290918301828280156103a75780601f1061037c576101008083540402835291602001916103a7565b60006001600160a01b0382166105eb5760405162461bcd60e51b81526004016103d890611ee0565b6001600160a01b038216600090815260656020526040902061050390610df8565b606b8054604080516020601f60026000196101006001881615020190951694909404938401819004810282018101909252828152606093909290918301828280156103a75780601f1061037c576101008083540402835291602001916103a7565b6060600061067a836105c3565b905060608167ffffffffffffffff8111801561069557600080fd5b506040519080825280602002602001820160405280156106cf57816020015b6106bc61167b565b8152602001906001900390816106b45790505b50905060005b828110156105325760006106e986836104de565b9050609a600082815260200190815260200160002060405180606001604052908160008201548152602001600182015481526020016002820160009054906101000a900460ff16600281111561073b57fe5b600281111561074657fe5b8152505083838151811061075657fe5b6020908102919091010152506001016106d5565b610772610d86565b6001600160a01b0316826001600160a01b031614156107a35760405162461bcd60e51b81526004016103d890611dd7565b80606960006107b0610d86565b6001600160a01b03908116825260208083019390935260409182016000908120918716808252919093529120805460ff1916921515929092179091556107f4610d86565b6001600160a01b03167f17307eab39ab6107e8899845ad3d59bd9653f200f220920489ca2b5937696c318360405161082c9190611c73565b60405180910390a35050565b610849610843610d86565b83610e03565b6108655760405162461bcd60e51b81526004016103d890612114565b61087184848484610fd5565b50505050565b600054610100900460ff16806108905750610890611008565b8061089e575060005460ff16155b6108ba5760405162461bcd60e51b81526004016103d890611f2a565b600054610100900460ff161580156108e5576000805460ff1961ff0019909116610100171660011790555b609880546001600160a01b0384166001600160a01b031991821681179092556099805490911690911790558015610922576000805461ff00191690555b5050565b606061093182610d79565b61094d5760405162461bcd60e51b81526004016103d890612084565b6000828152606c602090815260409182902080548351601f60026000196101006001861615020190931692909204918201849004840281018401909452808452606093928301828280156109e25780601f106109b7576101008083540402835291602001916109e2565b820191906000526020600020905b8154815290600101906020018083116109c557829003601f168201915b5050606d5493945050505060026000196101006001841615020190911604610a0b579050610316565b805115610a3d57606d81604051602001610a26929190611b1b565b604051602081830303815290604052915050610316565b606d610a488461100e565b604051602001610a59929190611b1b565b604051602081830303815290604052915050919050565b6001600160a01b03918216600090815260696020908152604080832093909416825291909152205460ff1690565b610aa661167b565b6000828152609a6020908152604091829020825160608101845281548152600182015492810192909252600280820154929391929184019160ff1690811115610aeb57fe5b6002811115610af657fe5b90525092915050565b610b0761167b565b604080516001808252818301909252606091602080830190803683370190505090508281600081518110610b3757fe5b6020908102919091010152609954604051634c7ca54760e11b81526060916001600160a01b0316906398f94a8e90610b73908590600401611c3b565b60006040518083038186803b158015610b8b57600080fd5b505afa158015610b9f573d6000803e3d6000fd5b505050506040513d6000823e601f3d908101601f19168201604052610bc7919081019061198a565b9050610bd16116a6565b81600081518110610bde57fe5b60200260200101519050336001600160a01b031681600001516001600160a01b031614610c1d5760405162461bcd60e51b81526004016103d890611e5a565b6000866002811115610c2b57fe5b1415610c5657806101600151600114610c565760405162461bcd60e51b81526004016103d890611d5c565b6001866002811115610c6457fe5b1415610c8f57806101600151600214610c8f5760405162461bcd60e51b81526004016103d890611d5c565b6002866002811115610c9d57fe5b1415610cc857806101600151600314610cc85760405162461bcd60e51b81526004016103d890611d5c565b610cd260976110e9565b6000610cde60976110f2565b9050610cea33826110f6565b610cf261167b565b6040518060600160405280838152602001428152602001896002811115610d1557fe5b815250905080609a6000848152602001908152602001600020600082015181600001556020820151816001015560408201518160020160006101000a81548160ff02191690836002811115610d6657fe5b0217905550919998505050505050505050565b60006105036066836111ba565b3390565b600081815260686020526040902080546001600160a01b0319166001600160a01b0384169081179091558190610dbf8261053a565b6001600160a01b03167f8c5be1e5ebec7d5bd14f71427d1e84f3dd0314c0f7b2291e5b200ac8c7c3b92560405160405180910390a45050565b6000610503826110f2565b6000610e0e82610d79565b610e2a5760405162461bcd60e51b81526004016103d890611e0e565b6000610e358361053a565b9050806001600160a01b0316846001600160a01b03161480610e705750836001600160a01b0316610e65846103b1565b6001600160a01b0316145b80610e805750610e808185610a70565b949350505050565b826001600160a01b0316610e9b8261053a565b6001600160a01b031614610ec15760405162461bcd60e51b81526004016103d89061203b565b6001600160a01b038216610ee75760405162461bcd60e51b81526004016103d890611d93565b610ef2838383610490565b610efd600082610d8a565b6001600160a01b0383166000908152606560205260409020610f1f90826111c6565b506001600160a01b0382166000908152606560205260409020610f4290826111d2565b50610f4f606682846111de565b5080826001600160a01b0316846001600160a01b03167fddf252ad1be2c89b69c2b068fc378daa952ba7f163c4a11628f55a4df523b3ef60405160405180910390a4505050565b600061050083836111f4565b6000808080610fb18686611239565b9097909650945050505050565b6000610fcb848484611295565b90505b9392505050565b610fe0848484610e88565b610fec848484846112f4565b6108715760405162461bcd60e51b81526004016103d890611cd3565b303b1590565b60608161103357506040805180820190915260018152600360fc1b6020820152610316565b8160005b811561104b57600101600a82049150611037565b60608167ffffffffffffffff8111801561106457600080fd5b506040519080825280601f01601f19166020018201604052801561108f576020820181803683370190505b50859350905060001982015b83156110e057600a840660300160f81b828280600190039350815181106110be57fe5b60200101906001600160f81b031916908160001a905350600a8404935061109b565b50949350505050565b80546001019055565b5490565b6001600160a01b03821661111c5760405162461bcd60e51b81526004016103d890611fba565b61112581610d79565b156111425760405162461bcd60e51b81526004016103d890611d25565b61114e60008383610490565b6001600160a01b038216600090815260656020526040902061117090826111d2565b5061117d606682846111de565b5060405181906001600160a01b038416906000907fddf252ad1be2c89b69c2b068fc378daa952ba7f163c4a11628f55a4df523b3ef908290a45050565b600061050083836113d3565b600061050083836113eb565b600061050083836114b1565b6000610fcb84846001600160a01b0385166114fb565b815460009082106112175760405162461bcd60e51b81526004016103d890611c91565b82600001828154811061122657fe5b9060005260206000200154905092915050565b81546000908190831061125e5760405162461bcd60e51b81526004016103d890611f78565b600084600001848154811061126f57fe5b906000526020600020906002020190508060000154816001015492509250509250929050565b600082815260018401602052604081205482816112c55760405162461bcd60e51b81526004016103d89190611c7e565b508460000160018203815481106112d857fe5b9060005260206000209060020201600101549150509392505050565b6000611308846001600160a01b0316611592565b61131457506001610e80565b606061139c630a85bd0160e11b611329610d86565b88878760405160240161133f9493929190611bb0565b604051602081830303815290604052906001600160e01b0319166020820180516001600160e01b038381831617835250505050604051806060016040528060328152602001612235603291396001600160a01b0388169190611598565b90506000818060200190518101906113b49190611a57565b6001600160e01b031916630a85bd0160e11b1492505050949350505050565b60009081526001919091016020526040902054151590565b600081815260018301602052604081205480156114a7578354600019808301919081019060009087908390811061141e57fe5b906000526020600020015490508087600001848154811061143b57fe5b60009182526020808320909101929092558281526001898101909252604090209084019055865487908061146b57fe5b60019003818190600052602060002001600090559055866001016000878152602001908152602001600020600090556001945050505050610503565b6000915050610503565b60006114bd83836113d3565b6114f357508154600181810184556000848152602080822090930184905584548482528286019093526040902091909155610503565b506000610503565b600082815260018401602052604081205480611560575050604080518082018252838152602080820184815286546001818101895560008981528481209551600290930290950191825591519082015586548684528188019092529290912055610fce565b8285600001600183038154811061157357fe5b9060005260206000209060020201600101819055506000915050610fce565b3b151590565b6060610fcb8484600085856115ac85611592565b6115c85760405162461bcd60e51b81526004016103d890612165565b60006060866001600160a01b031685876040516115e59190611aff565b60006040518083038185875af1925050503d8060008114611622576040519150601f19603f3d011682016040523d82523d6000602084013e611627565b606091505b5091509150611637828286611642565b979650505050505050565b60608315611651575081610fce565b8251156116615782518084602001fd5b8160405162461bcd60e51b81526004016103d89190611c7e565b60405180606001604052806000815260200160008152602001600060028111156116a157fe5b905290565b60405180610180016040528060006001600160a01b03168152602001600081526020016000815260200160008152602001600081526020016000815260200160008152602001600060018111156116f957fe5b8152602001600081526020016000815260200160008152602001600081525090565b805161050381612206565b80516002811061050357600080fd5b6000610180808385031215611748578182fd5b611751816121b3565b91505061175e838361171b565b81526020820151602082015260408201516040820152606082015160608201526080820151608082015260a082015160a082015260c082015160c08201526117a98360e08401611726565b60e08201526101008281015190820152610120808301519082015261014080830151908201526101609182015191810191909152919050565b6000602082840312156117f3578081fd5b8135610fce81612206565b60008060408385031215611810578081fd5b823561181b81612206565b9150602083013561182b81612206565b809150509250929050565b60008060006060848603121561184a578081fd5b833561185581612206565b9250602084013561186581612206565b929592945050506040919091013590565b6000806000806080858703121561188b578081fd5b843561189681612206565b93506020858101356118a781612206565b935060408601359250606086013567ffffffffffffffff808211156118ca578384fd5b818801915088601f8301126118dd578384fd5b8135818111156118eb578485fd5b6118fd601f8201601f191685016121b3565b91508082528984828501011115611912578485fd5b8084840185840137810190920192909252939692955090935050565b60008060408385031215611940578182fd5b823561194b81612206565b91506020830135801515811461182b578182fd5b60008060408385031215611971578182fd5b823561197c81612206565b946020939093013593505050565b6000602080838503121561199c578182fd5b825167ffffffffffffffff808211156119b3578384fd5b818501915085601f8301126119c6578384fd5b8151818111156119d4578485fd5b6119e184858302016121b3565b8181528481019250838501610180808402860187018a1015611a01578788fd5b8795505b83861015611a2d57611a178a83611735565b8552600195909501949386019390810190611a05565b509098975050505050505050565b600060208284031215611a4c578081fd5b8135610fce8161221e565b600060208284031215611a68578081fd5b8151610fce8161221e565b60008060408385031215611a85578182fd5b82356003811061197c578283fd5b600060208284031215611aa4578081fd5b5035919050565b60008151808452611ac38160208601602086016121da565b601f01601f19169290920160200192915050565b8051825260208101516020830152604081015160038110611af457fe5b806040840152505050565b60008251611b118184602087016121da565b9190910192915050565b6000808454600180821660008114611b3a5760018114611b5157611b80565b60ff198316865260028304607f1686019350611b80565b600283048886526020808720875b83811015611b785781548a820152908501908201611b5f565b505050860193505b5050508351611b938183602088016121da565b01949350505050565b6001600160a01b0391909116815260200190565b6001600160a01b0385811682528416602082015260408101839052608060608201819052600090611be390830184611aab565b9695505050505050565b6020808252825182820181905260009190848201906040850190845b81811015611c2f57611c1c838551611ad7565b9284019260609290920191600101611c09565b50909695505050505050565b6020808252825182820181905260009190848201906040850190845b81811015611c2f57835183529284019291840191600101611c57565b901515815260200190565b6000602082526105006020830184611aab565b60208082526022908201527f456e756d657261626c655365743a20696e646578206f7574206f6620626f756e604082015261647360f01b606082015260800190565b60208082526032908201527f4552433732313a207472616e7366657220746f206e6f6e20455243373231526560408201527131b2b4bb32b91034b6b83632b6b2b73a32b960711b606082015260800190565b6020808252601c908201527f4552433732313a20746f6b656e20616c7265616479206d696e74656400000000604082015260600190565b6020808252601b908201527f506c616e6574206c6576656c20646f6573206e6f74206d617463680000000000604082015260600190565b60208082526024908201527f4552433732313a207472616e7366657220746f20746865207a65726f206164646040820152637265737360e01b606082015260800190565b60208082526019908201527f4552433732313a20617070726f766520746f2063616c6c657200000000000000604082015260600190565b6020808252602c908201527f4552433732313a206f70657261746f7220717565727920666f72206e6f6e657860408201526b34b9ba32b73a103a37b5b2b760a11b606082015260800190565b6020808252600f908201526e139bdd081e5bdd5c881c1b185b995d608a1b604082015260600190565b60208082526038908201527f4552433732313a20617070726f76652063616c6c6572206973206e6f74206f7760408201527f6e6572206e6f7220617070726f76656420666f7220616c6c0000000000000000606082015260800190565b6020808252602a908201527f4552433732313a2062616c616e636520717565727920666f7220746865207a65604082015269726f206164647265737360b01b606082015260800190565b6020808252602e908201527f496e697469616c697a61626c653a20636f6e747261637420697320616c72656160408201526d191e481a5b9a5d1a585b1a5e995960921b606082015260800190565b60208082526022908201527f456e756d657261626c654d61703a20696e646578206f7574206f6620626f756e604082015261647360f01b606082015260800190565b6020808252818101527f4552433732313a206d696e7420746f20746865207a65726f2061646472657373604082015260600190565b6020808252602c908201527f4552433732313a20617070726f76656420717565727920666f72206e6f6e657860408201526b34b9ba32b73a103a37b5b2b760a11b606082015260800190565b60208082526029908201527f4552433732313a207472616e73666572206f6620746f6b656e2074686174206960408201526839903737ba1037bbb760b91b606082015260800190565b6020808252602f908201527f4552433732314d657461646174613a2055524920717565727920666f72206e6f60408201526e3732bc34b9ba32b73a103a37b5b2b760891b606082015260800190565b60208082526021908201527f4552433732313a20617070726f76616c20746f2063757272656e74206f776e656040820152603960f91b606082015260800190565b60208082526031908201527f4552433732313a207472616e736665722063616c6c6572206973206e6f74206f6040820152701ddb995c881b9bdc88185c1c1c9bdd9959607a1b606082015260800190565b6020808252601d908201527f416464726573733a2063616c6c20746f206e6f6e2d636f6e7472616374000000604082015260600190565b606081016105038284611ad7565b90815260200190565b60405181810167ffffffffffffffff811182821017156121d257600080fd5b604052919050565b60005b838110156121f55781810151838201526020016121dd565b838111156108715750506000910152565b6001600160a01b038116811461221b57600080fd5b50565b6001600160e01b03198116811461221b57600080fdfe4552433732313a207472616e7366657220746f206e6f6e20455243373231526563656976657220696d706c656d656e7465724552433732313a206f776e657220717565727920666f72206e6f6e6578697374656e7420746f6b656ea2646970667358221220d02383b4368f123949ae7a92127d9e6a282eaac83420a13bc7f456ce2d61179b64736f6c634300060c0033",
  "compiler": {
    "name": "solc",
    "version": "0.6.12+commit.27d51765.Emscripten.clang",
    "optimizer": {
      "enabled": true,
      "runs": 200
    },
    "evmVersion": "petersburg"
  }
}